:020000040800F2
:1000000000500020E5010008000000000000000092
:10001000E1010008E1010008E10100080000000022
:10002000000000000000000000000000E1010008E6
:10003000E101000800000000E1010008E101000802
:10004000E1010008E1010008E1010008E101000808
:10005000E1010008E1010008E1010008E1010008F8
:10006000E1010008E1010008E1010008E1010008E8
:10007000E1010008E1010008E1010008E1010008D8
:10008000E1010008E1010008E1010008E1010008C8
:10009000E1010008E1010008E1010008E1010008B8
:1000A000E1010008E1010008E1010008E1010008A8
:1000B000E1010008E1010008E1010008E101000898
:1000C000E1010008E1010008E1010008E101000888
:1000D000E1010008E1010008E1010008E101000878
:1000E000E1010008E1010008E1010008E101000868
:1000F000E1010008E1010008E1010008E101000858
:10010000E1010008E1010008E1010008E101000847
:10011000E1010008E1010008E1010008E101000837
:10012000E1010008E1010008E1010008E101000827
:1001300000000000000000000000000000000000BF
:1001400000000000000000000000000000000000AF
:10015000000000000000000000000000000000009F
:10016000000000000000000000000000000000008F
:10017000000000000000000000000000000000007F
:10018000000000000000000000000000000000006F
:10019000000000000000000000000000000000005F
:1001A000000000000000000000000000000000004F
:1001B000000000000000000000000000000000003F
:1001C000000000000000000000000000000000002F
:1001D0000000000000000000000000005FF8E0F1F7
:1001E000FEE700BF684620F007018D461448154918
:1001F00008B5814209D0144B984206D2C243134439
:1002000023F00302043201F021F91048104B984208
:1002100007D2C243134423F003020432002101F049
:100220008BF90C4B0C4A23F0684323F07F0343F017
:100230000063936000F0BAF800F038F8FEE700BF02
:1002400000000020D8150008280000202800002009
:10025000280000200000000000ED00E00E490F48DB
:1002600008B5814209D00E4B984206D2C2431A44C7
:1002700022F00302043201F0E9F80A480A4B9842DE
:1002800009D2C2431A4422F0030204320021BDE81D
:10029000084001F051B908BDD81500080000002041
:1002A0002800002028000020280000202DE9F0412F
:1002B000082082B0012100F061FD4020012100F002
:1002C0005DFD202500F03CF80322102301A917480A
:1002D0008DF806208DF80730ADF8045000F08EF947
:1002E00001A9134800F08AF9DFF84080104F4FF45D
:1002F0000016104CC8F810503D6120460E4900F021
:1003000073FF0E49044601F077F80028F5D1094C37
:10031000C8F810603E612046074900F065FF0749B4
:10032000044601F069F80028F5D1E2E70018014021
:10033000000C0140000048424703803F17B7D13806
:10034000034A13889BB243F001031380704700BF38
:10035000002C014008B500F03BFE064900F090FE7D
:10036000054900F041FF034900F082FD01F04EF81D
:1003700080B208BD00007A440000344308B500F0A4
:1003800027FE074900F07CFE064900F02DFF0449D6
:1003900000F06EFD01F03AF8034B80B2988608BD7C
:1003A00000007A4400003443002C01403C4B30B440
:1003B00018683C4940F0010018605D6882B029402F
:1003C00059601968002021F0847121F4803119608E
:1003D00019684FF41F0421F48021196059681A46E6
:1003E00021F4FE0159609C6000900190196841F46D
:1003F0008031196003E0009BB3F5A06F09D013684A
:1004000003F400330193009B01330093019B002B05
:10041000F1D0234B1B6813F4003318BF0123019361
:10042000019B012B06D0204B4FF000629A6002B076
:1004300030BC70471D4A1A4B1068194640F0100036
:100440001060106820F003001060106840F0020097
:1004500010605A685A605A685A605A6842F480625A
:100460005A605A6822F47C125A605A6842F4E812C0
:100470005A601A6842F080721A600B68084A9B0141
:10048000FBD51146536823F003035360536843F0D0
:10049000020353604B6803F00C03082BFAD1C2E748
:1004A000001002400000FFF800ED00E000200240D4
:1004B000114A536803F00C03082B0ED1536851689E
:1004C000C3F38343C90303F1020310D552689203B7
:1004D0000DD40A4A02FB03F300E0084B064A084920
:1004E0005268C2F303128A5CD3400B617047054A1D
:1004F00002FB03F3F2E700BF0010024000127A0093
:100500000000002000093D0008B52F4B98421ED086
:100510002E4B984225D02E4B98422CD02D4B9842F2
:1005200033D02D4B98423AD02C4B984241D02C4B93
:10053000984200D008BD4FF48070012100F036FCD5
:10054000BDE808404FF48070002100F02FBC04206B
:10055000012100F02BFCBDE808400420002100F040
:1005600025BC0820012100F021FCBDE8084008203E
:10057000002100F01BBC1020012100F017FCBDE899
:1005800008401020002100F011BC2020012100F0C3
:100590000DFCBDE808402020002100F007BC4020F1
:1005A000012100F003FCBDE808404020002100F0DC
:1005B000FDBB8020012100F0F9FBBDE80840802050
:1005C000002100F0F3BB00BF00080140000C014017
:1005D000001001400014014000180140001C0140BF
:1005E0000020014008B50120014600F0DFFBBDE816
:1005F00008400120002100F0D9BB00BF30B4CD7805
:10060000EB0648BF8B7805F00F0448BF1C430B88EE
:1006100013F0FF0F33D0482D026800F09980282D89
:1006200000F0FF80D90744BF22F00F022243990750
:1006300044BF22F0F00242EA0412590744BF22F4F8
:10064000706242EA0422190744BF22F4704242EA6F
:100650000432D90644BF22F4702242EA04429906C9
:1006600044BF22F4700242EA0452590644BF22F009
:10067000706242EA0462190600F19F800260FF2B5B
:1006800031D9482D426830D0282D00F09980D90505
:1006900044BF22F00F0222439D0544BF22F0F00226
:1006A00042EA0412590544BF22F4706242EA04226D
:1006B0001D0544BF22F4704242EA0432D90444BF0B
:1006C00022F4702242EA04429D0444BF22F47002E4
:1006D00042EA0452590444BF22F0706242EA0462C2
:1006E0001B0467D4426030BC704703F4807189B248
:1006F000002940F0D68003F4007189B2002940F04F
:10070000CA8003F4806189B2002940F0BE8003F4FE
:10071000006189B2002940F0B28003F4805189B2AF
:10072000002940F0C98003F4005189B2002940F04B
:10073000BD8003F4804189B2002940F0C38003F4F6
:1007400000439BB2002BCDD064F31F720361C9E755
:1007500013F0010140F0328103F0020189B2002957
:1007600040F0268103F0040189B2002940F01A818B
:1007700003F0080189B2002940F00E8103F0100156
:1007800089B2002940F0028103F0200189B20029DA
:1007900040F0F68003F0400189B2002940F0EA8081
:1007A00003F0800189B200293FF468AF64F31F723F
:1007B000016163E764F31F7294E764F31F725DE7FE
:1007C00003F4807189B2002940F0A68003F400711F
:1007D00089B2002940F09A8003F4806189B200292F
:1007E00040F08E8003F4006189B2002940F08280DD
:1007F00003F4805189B2002976D103F4005189B203
:1008000000296BD103F4804189B2002960D103F43F
:1008100000439BB2002B3FF465AF64F31F7243614A
:1008200060E713F0010140F09A8003F0020189B201
:10083000002940F08E8003F0040189B2002940F0C5
:10084000828003F0080189B2002976D103F01001FB
:1008500089B200296BD103F0200189B2002960D14F
:1008600003F0400189B200297ED103F0800189B2F2
:1008700000293FF403AF64F31F724161FEE622F4E6
:10088000704242EA0432016147E722F4706242EAB0
:10089000042201613BE722F0F00242EA0412016106
:1008A0002FE722F00F022243016124E722F47002B5
:1008B00042EA045201613CE722F4702242EA044217
:1008C000016130E722F0706242EA0462016136E7BA
:1008D00022F0706242EA0462416198E722F47002F9
:1008E00042EA045241618DE722F4702242EA044256
:1008F000416182E722F4704242EA0432416177E7C3
:1009000022F4706242EA042241616BE722F0F002B5
:1009100042EA041241615FE722F00F022243416183
:1009200054E722F4700242EA0452416198E722F44B
:10093000702242EA044241618DE722F4704242EAA9
:100940000432416182E722F4706242EA042241618A
:1009500077E722F0F00242EA041241616BE722F0ED
:100960000F022243416160E722F0706242EA0462B2
:1009700041617AE722F0706242EA046201610FE7A6
:1009800022F4700242EA0452016103E722F4702269
:1009900042EA04420161F7E622F4704242EA04327C
:1009A0000161EBE622F4706242EA04220161DFE6B3
:1009B00022F0F00242EA04120161D3E622F00F02B3
:1009C00022430161C8E600BF4FF6FF7102220423F3
:1009D00001808270C37070478368194214BF012080
:1009E00000207047806880B2704700BFC36819421A
:1009F00014BF012000207047C06880B2704700BF5C
:100A000001617047416170470AB9416170470161F6
:100A1000704700BFC160704741F4803383618161DA
:100A200083618369836970474FF68073054A10B408
:100A300014682340194341EA001010605DF8044B2C
:100A4000704700BF00000140014B1860704700BFB5
:100A50001C0020420028194B00F44012B4BFDB698F
:100A60005B68B2F5401F30B484B21ED0C20213D509
:100A7000C0F303450322AA4023EA020343F0706354
:100A800019B1420D1201944023430C4A0028B4BF0F
:100A9000D361536030BC7047420D120104FA02F278
:100AA00023EA020343F07063EAE7044D23F0706326
:100AB0006A6822F070626A60E2E700BF00000140ED
:100AC00001F0FC0303F1804303F5803301F00301DF
:100AD00010B489009C680F228A4024EA02029A60BE
:100AE0009A68884002439A605DF8044B704700BFE3
:100AF000014B1860704700BFDC0020420D4B0E4ACE
:100B000019684FF41F0041F00101196059680A404B
:100B10005A601A6822F0847222F480321A601A68CD
:100B200022F480221A605A6822F4FE025A60986009
:100B3000704700BF001002400000FFF80C4BB0F5FA
:100B4000803F1A6822F480321A601A6822F48022E8
:100B50001A6008D0B0F5802F04D11A6842F4A022A0
:100B60001A60704770471A6842F480321A60704702
:100B70000010024082B000230A4A019302E0B3F55C
:100B8000A06F08D0136813F4003F019B03F1010329
:100B90000193019BF3D0034B1868C0F3404002B0AF
:100BA000704700BF00100240034A136823F0F803A7
:100BB00043EAC0001060704700100240014B18600B
:100BC000704700BF00004242034A536823F47C137D
:100BD000194308435060704700100240014B1860F1
:100BE000704700BF60004242034A536823F003038A
:100BF00018435060704700BF00100240024B586815
:100C000000F00C00704700BF00100240034A536818
:100C100023F0F00318435060704700BF00100240FB
:100C2000034A536823F4E06318435060704700BFE1
:100C300000100240034A536823F4605343EAC000A3
:100C40005060704700100240044A137819B923EA33
:100C50000000107070471843107070470910024070
:100C6000014B1860704700BFD8004242034A5368E6
:100C700023F4404318435060704700BF0010024007
:100C8000064B002201281A701A7005D0042802D1E0
:100C900005221A7070477047187070472010024084
:100CA000014B1860704700BF80044242024A136A39
:100CB00018431062704700BF00100240014B1860DB
:100CC000704700BF3C044242224A10B4536803F00C
:100CD0000C03042B06D0082B26D01BB11E4A13464A
:100CE000026001E01C4B03601A4A1C495468C4F3BB
:100CF00003140C5DE34043605468C4F302240C5DAC
:100D000023FA04F484605468C4F3C2240C5DE34005
:100D1000C36052685DF8044BC2F381320A44127C0E
:100D2000B3FBF2F30361704753685168C3F3834325
:100D3000C90303F1020307D55268920304D4064A9B
:100D400002FB03F30360CFE7054A02FB03F30360F2
:100D5000CAE700BF0010024000127A001400002011
:100D600000093D00044A536919B923EA00005061A3
:100D7000704718435061704700100240044A93695D
:100D800019B923EA000090617047184390617047D9
:100D900000100240044AD36919B923EA0000D06167
:100DA00070471843D061704700100240044AD3686E
:100DB00019B923EA0000D06070471843D06070472B
:100DC00000100240044A136919B923EA00001061B7
:100DD000704718431061704700100240014B1860C3
:100DE000704700BF40044242014B1860704700BF8B
:100DF0004C004242014B1870704700BF0710024080
:100E00004309012B0BD0022B094B0CBF1A6A5A6AFB
:100E100000F01F0322FA03F000F001007047044BBA
:100E20001A6800F01F0322FA03F000F00100704777
:100E300000100240024A536A43F0807353627047C5
:100E400000100240034B9B68184214BF0120002091
:100E5000704700BF00100240014B1870704700BF80
:100E60000A10024080F0004002E000BF81F0004123
:100E700042001FBF5FEA410392EA030F7FEA226C40
:100E80007FEA236C6AD04FEA1262D2EB1363C1BFD0
:100E9000D218414048404140B8BF5B42192B88BF3F
:100EA000704710F0004F40F4000020F07F4018BF62
:100EB000404211F0004F41F4000121F07F4118BF82
:100EC000494292EA030F3FD0A2F1010241FA03FC2A
:100ED00010EB0C00C3F1200301FA03F100F0004312
:100EE00002D5494260EB4000B0F5000F13D3B0F1DA
:100EF000807F06D340084FEA310102F10102FE2A49
:100F000051D2B1F1004F40EBC25008BF20F00100B8
:100F100040EA03007047490040EB000010F4000F66
:100F2000A2F10102EDD1B0FA80FCACF1080CB2EBF9
:100F30000C0200FA0CF0AABF00EBC2505242184358
:100F4000BCBFD0401843704792F0000F81F40001FD
:100F500006BF80F400000132013BB5E74FEA4103D0
:100F60007FEA226C18BF7FEA236C21D092EA030F3C
:100F700004D092F0000F08BF0846704790EA010FB6
:100F80001CBF0020704712F07F4F04D1400028BFE3
:100F900040F00040704712F100723CBF00F50000C5
:100FA000704700F0004343F0FE4040F400007047FB
:100FB0007FEA226216BF08467FEA236301464202A7
:100FC00006BF5FEA412390EA010F40F480007047BA
:100FD0004FF0000304E000BF10F0004348BF404260
:100FE0005FEA000C08BF704743F0964301464FF09C
:100FF00000001CE050EA010208BF70474FF00003F8
:101000000AE000BF50EA010208BF704711F0004338
:1010100002D5404261EB41015FEA010C02BF844608
:101020000146002043F0B64308BFA3F18053A3F567
:101030000003BCFA8CF2083AA3EBC25310DB01FAAE
:1010400002FC634400FA02FCC2F12002BCF1004F32
:1010500020FA02F243EB020008BF20F001007047C3
:1010600002F1200201FA02FCC2F1200250EA4C0017
:1010700021FA02F243EB020008BF20EADC7070475D
:101080004FF0FF0C1CEAD0521EBF1CEAD15392EA6B
:101090000C0F93EA0C0F6FD01A4480EA010C400247
:1010A00018BF5FEA41211ED04FF0006343EA5010A1
:1010B00043EA5111A0FB01310CF00040B1F5000FE3
:1010C0003EBF490041EAD3715B0040EA010062F192
:1010D0007F02FD2A1DD8B3F1004F40EBC25008BF7C
:1010E00020F00100704790F0000F0CF0004C08BF9A
:1010F00049024CEA502040EA51207F3AC2BFD2F167
:10110000FF0340EAC250704740F400004FF0000374
:10111000013A5DDC12F1190FDCBF00F000407047AE
:10112000C2F10002410021FA02F1C2F1200200FAEC
:1011300002FC5FEA310040F1000053EA4C0308BFB3
:1011400020EADC70704792F0000F00F0004C02BF04
:10115000400010F4000F013AF9D040EA0C0093F07F
:10116000000F01F0004C02BF490011F4000F013BD9
:10117000F9D041EA0C018FE70CEAD15392EA0C0F47
:1011800018BF93EA0C0F0AD030F0004C18BF31F0B2
:10119000004CD8D180EA010000F00040704790F088
:1011A000000F17BF90F0004F084691F0000F91F02C
:1011B000004F14D092EA0C0F01D142020FD193EAF2
:1011C0000C0F03D14B0218BF084608D180EA01007A
:1011D00000F0004040F0FE4040F40000704740F056
:1011E000FE4040F4400070474FF0FF0C1CEAD05224
:1011F0001EBF1CEAD15392EA0C0F93EA0C0F69D080
:10120000A2EB030280EA010C49024FEA402037D0EA
:101210004FF0805343EA111143EA10130CF00040E1
:101220008B4238BF5B0042F17D024FF4000C8B42D1
:1012300024BF5B1A40EA0C00B3EB510F24BFA3EBB1
:10124000510340EA5C00B3EB910F24BFA3EB910381
:1012500040EA9C00B3EBD10F24BFA3EBD10340EADB
:10126000DC001B0118BF5FEA1C1CE0D1FD2A3FF621
:1012700050AF8B4240EBC25008BF20F001007047D6
:101280000CF0004C4CEA50207F32C2BFD2F1FF0379
:1012900040EAC250704740F400004FF00003013AAA
:1012A00037E792F0000F00F0004C02BF400010F44E
:1012B000000F013AF9D040EA0C0093F0000F01F062
:1012C000004C02BF490011F4000F013BF9D041EA84
:1012D0000C0195E70CEAD15392EA0C0F08D14202B7
:1012E0007FF47DAF93EA0C0F7FF470AF084676E78A
:1012F00093EA0C0F04D14B023FF44CAF08466EE763
:1013000030F0004C18BF31F0004CCAD130F0004230
:101310007FF45CAF31F000437FF43CAF5FE700BF88
:101320004FF0FF3C06E000BF4FF0010C02E000BFB1
:101330004FF0010C4DF804CD4FEA40024FEA410353
:101340007FEA226C18BF7FEA236C11D001B052EA09
:10135000530C18BF90EA010F58BFB2EB030088BFCF
:10136000C81738BF6FEAE17018BF40F0010070473E
:101370007FEA226C02D15FEA402C05D17FEA236C20
:10138000E4D15FEA412CE1D05DF8040B704700BF67
:10139000844608466146FFE70FB5FFF7C9FF0028FE
:1013A00048BF10F1000F0FBD4DF808EDFFF7F4FF37
:1013B0000CBF012000205DF808FB00BF4DF808EDD0
:1013C000FFF7EAFF34BF012000205DF808FB00BFF3
:1013D0004DF808EDFFF7E0FF94BF012000205DF815
:1013E00008FB00BF4DF808EDFFF7D2FF94BF0120C6
:1013F00000205DF808FB00BF4DF808EDFFF7C8FFBF
:1014000034BF012000205DF808FB00BF42000ED26F
:10141000B2F1FE4F0BD34FF09E03B3EB126209D42F
:101420004FEA002343F0004323FA02F070474FF0E5
:101430000000704712F1610F01D1420202D14FF05A
:10144000FF3070474FF00000704700BF844641EA0C
:10145000000313F0030349D1403A23D30B68036020
:101460004B6843608B688360CB68C3600B69036122
:101470004B6943618B698361CB69C3610B6A03620A
:101480004B6A43628B6A8362CB6AC3620B6B0363F2
:101490004B6B43638B6B8363CB6BC36340304031D7
:1014A000403ADBD230320BD30B6803604B684360A9
:1014B0008B688360CB68C36010301031103AF3D270
:1014C0000C3205D351F8043B40F8043B043AF9D2FE
:1014D000043208D0D2071CBF11F8013B00F8013BD1
:1014E00001D30B8803806046704700BF082A13D3DE
:1014F0008B07B1D010F00303AED0C3F10403D21AAE
:10150000DB071CBF11F8013B00F8013BA4D331F805
:10151000023B20F8023B9FE7043AD9D3013A11F885
:10152000013B00F8013BF9D20B7803704B78437014
:101530008B7883706046704770B4840746D0541E21
:10154000002A41D0CDB2034602E0621EE4B3144645
:1015500003F8015B9A07F8D1032C2ED9CDB245EAE6
:1015600005250F2C45EA054519D9264603F1100239
:10157000103E0F2E42F8105C42F80C5C42F8085CFA
:1015800042F8045C02F11002F2D8A4F1100222F039
:101590000F0204F00F041032032C13440DD91E4621
:1015A0002246043A032A46F8045BFAD8221F22F0A6
:1015B00003020432134404F003042CB1C9B21C44E6
:1015C00003F8011BA342FBD170BC704714460346CD
:0415D000C2E700BFAF
:1015D80000000000000000000102030406070809DB
:1015E80000A24A04000000000102030401020304EF
:0815F8000607080902040608B9
:04000005080001E509
:00000001FF
